{
  "_format": "hh-sol-artifact-1",
  "contractName": "LAIRegistration",
  "sourceName": "contracts/LAIRegistration.sol",
  "abi": [
    {
      "inputs": [],
      "stateMutability": "nonpayable",
      "type": "constructor"
    },
    {
      "inputs": [
        {
          "internalType": "address",
          "name": "owner",
          "type": "address"
        }
      ],
      "name": "OwnableInvalidOwner",
      "type": "error"
    },
    {
      "inputs": [
        {
          "internalType": "address",
          "name": "account",
          "type": "address"
        }
      ],
      "name": "OwnableUnauthorizedAccount",
      "type": "error"
    },
    {
      "anonymous": false,
      "inputs": [
        {
          "indexed": true,
          "internalType": "address",
          "name": "previousOwner",
          "type": "address"
        },
        {
          "indexed": true,
          "internalType": "address",
          "name": "newOwner",
          "type": "address"
        }
      ],
      "name": "OwnershipTransferred",
      "type": "event"
    },
    {
      "anonymous": false,
      "inputs": [
        {
          "indexed": true,
          "internalType": "address",
          "name": "wallet",
          "type": "address"
        },
        {
          "indexed": false,
          "internalType": "string",
          "name": "key",
          "type": "string"
        },
        {
          "indexed": false,
          "internalType": "uint256",
          "name": "tgId",
          "type": "uint256"
        }
      ],
      "name": "RegistrationSuccessfulTG",
      "type": "event"
    },
    {
      "anonymous": false,
      "inputs": [
        {
          "indexed": true,
          "internalType": "address",
          "name": "wallet",
          "type": "address"
        },
        {
          "indexed": false,
          "internalType": "string",
          "name": "key",
          "type": "string"
        }
      ],
      "name": "RegistrationSuccessfulUI",
      "type": "event"
    },
    {
      "inputs": [
        {
          "internalType": "address",
          "name": "",
          "type": "address"
        }
      ],
      "name": "apiKeys",
      "outputs": [
        {
          "internalType": "string",
          "name": "",
          "type": "string"
        }
      ],
      "stateMutability": "view",
      "type": "function"
    },
    {
      "inputs": [
        {
          "internalType": "uint256",
          "name": "",
          "type": "uint256"
        }
      ],
      "name": "apiKeysTG",
      "outputs": [
        {
          "internalType": "string",
          "name": "apiKey",
          "type": "string"
        },
        {
          "internalType": "address",
          "name": "userWallet",
          "type": "address"
        }
      ],
      "stateMutability": "view",
      "type": "function"
    },
    {
      "inputs": [
        {
          "internalType": "uint256",
          "name": "_newFee",
          "type": "uint256"
        }
      ],
      "name": "changeFee",
      "outputs": [],
      "stateMutability": "nonpayable",
      "type": "function"
    },
    {
      "inputs": [
        {
          "internalType": "uint256",
          "name": "tgId",
          "type": "uint256"
        }
      ],
      "name": "getTGApiKey",
      "outputs": [
        {
          "internalType": "string",
          "name": "",
          "type": "string"
        },
        {
          "internalType": "address",
          "name": "",
          "type": "address"
        }
      ],
      "stateMutability": "view",
      "type": "function"
    },
    {
      "inputs": [
        {
          "internalType": "address",
          "name": "wallet",
          "type": "address"
        }
      ],
      "name": "getUIApiKey",
      "outputs": [
        {
          "internalType": "string",
          "name": "",
          "type": "string"
        }
      ],
      "stateMutability": "view",
      "type": "function"
    },
    {
      "inputs": [],
      "name": "owner",
      "outputs": [
        {
          "internalType": "address",
          "name": "",
          "type": "address"
        }
      ],
      "stateMutability": "view",
      "type": "function"
    },
    {
      "inputs": [
        {
          "internalType": "string",
          "name": "key",
          "type": "string"
        },
        {
          "internalType": "uint256",
          "name": "tgId",
          "type": "uint256"
        }
      ],
      "name": "registration",
      "outputs": [],
      "stateMutability": "payable",
      "type": "function"
    },
    {
      "inputs": [],
      "name": "renounceOwnership",
      "outputs": [],
      "stateMutability": "nonpayable",
      "type": "function"
    },
    {
      "inputs": [
        {
          "internalType": "address",
          "name": "newOwner",
          "type": "address"
        }
      ],
      "name": "transferOwnership",
      "outputs": [],
      "stateMutability": "nonpayable",
      "type": "function"
    },
    {
      "inputs": [],
      "name": "withdraw",
      "outputs": [],
      "stateMutability": "nonpayable",
      "type": "function"
    }
  ],
  "bytecode": "0x608060405266038d7ea4c6800060015534801561001b57600080fd5b5033600073ffffffffffffffffffffffffffffffffffffffff168173ffffffffffffffffffffffffffffffffffffffff160361008f5760006040517f1e4fbdf700000000000000000000000000000000000000000000000000000000815260040161008691906101a9565b60405180910390fd5b61009e816100a460201b60201c565b506101c4565b60008060009054906101000a900473ffffffffffffffffffffffffffffffffffffffff169050816000806101000a81548173ffffffffffffffffffffffffffffffffffffffff021916908373ffffffffffffffffffffffffffffffffffffffff1602179055508173ffffffffffffffffffffffffffffffffffffffff168173ffffffffffffffffffffffffffffffffffffffff167f8be0079c531659141344cd1fd0a4f28419497f9722a3daafe3b4186f6b6457e060405160405180910390a35050565b600073ffffffffffffffffffffffffffffffffffffffff82169050919050565b600061019382610168565b9050919050565b6101a381610188565b82525050565b60006020820190506101be600083018461019a565b92915050565b6112fd806101d36000396000f3fe6080604052600436106100915760003560e01c80636a1db1bf116100595780636a1db1bf146101a3578063715018a6146101cc5780638da5cb5b146101e35780638ee1d3041461020e578063f2fde38b1461022a57610091565b8063010b51ca146100965780633ccfd60b146100d4578063498ced46146100eb5780635fb1f9071461012857806361e9e81014610166575b600080fd5b3480156100a257600080fd5b506100bd60048036038101906100b89190610b37565b610253565b6040516100cb929190610c35565b60405180910390f35b3480156100e057600080fd5b506100e9610374565b005b3480156100f757600080fd5b50610112600480360381019061010d9190610c91565b6103cc565b60405161011f9190610cbe565b60405180910390f35b34801561013457600080fd5b5061014f600480360381019061014a9190610b37565b61046c565b60405161015d929190610c35565b60405180910390f35b34801561017257600080fd5b5061018d60048036038101906101889190610c91565b610538565b60405161019a9190610cbe565b60405180910390f35b3480156101af57600080fd5b506101ca60048036038101906101c59190610b37565b610609565b005b3480156101d857600080fd5b506101e161061b565b005b3480156101ef57600080fd5b506101f861062f565b6040516102059190610ce0565b60405180910390f35b61022860048036038101906102239190610e30565b610658565b005b34801561023657600080fd5b50610251600480360381019061024c9190610c91565b610914565b005b60606000806003600085815260200190815260200160002060405180604001604052908160008201805461028690610ebb565b80601f01602080910402602001604051908101604052809291908181526020018280546102b290610ebb565b80156102ff5780601f106102d4576101008083540402835291602001916102ff565b820191906000526020600020905b8154815290600101906020018083116102e257829003601f168201915b505050505081526020016001820160009054906101000a900473ffffffffffffffffffffffffffffffffffffffff1673ffffffffffffffffffffffffffffffffffffffff1673ffffffffffffffffffffffffffffffffffffffff16815250509050806000015181602001519250925050915091565b61037c61099a565b61038461062f565b73ffffffffffffffffffffffffffffffffffffffff166108fc479081150290604051600060405180830381858888f193505050501580156103c9573d6000803e3d6000fd5b50565b600260205280600052604060002060009150905080546103eb90610ebb565b80601f016020809104026020016040519081016040528092919081815260200182805461041790610ebb565b80156104645780601f1061043957610100808354040283529160200191610464565b820191906000526020600020905b81548152906001019060200180831161044757829003601f168201915b505050505081565b600360205280600052604060002060009150905080600001805461048f90610ebb565b80601f01602080910402602001604051908101604052809291908181526020018280546104bb90610ebb565b80156105085780601f106104dd57610100808354040283529160200191610508565b820191906000526020600020905b8154815290600101906020018083116104eb57829003601f168201915b5050505050908060010160009054906101000a900473ffffffffffffffffffffffffffffffffffffffff16905082565b6060600260008373ffffffffffffffffffffffffffffffffffffffff1673ffffffffffffffffffffffffffffffffffffffff168152602001908152602001600020805461058490610ebb565b80601f01602080910402602001604051908101604052809291908181526020018280546105b090610ebb565b80156105fd5780601f106105d2576101008083540402835291602001916105fd565b820191906000526020600020905b8154815290600101906020018083116105e057829003601f168201915b50505050509050919050565b61061161099a565b8060018190555050565b61062361099a565b61062d6000610a21565b565b60008060009054906101000a900473ffffffffffffffffffffffffffffffffffffffff16905090565b60015434101561069d576040517f08c379a000000000000000000000000000000000000000000000000000000000815260040161069490610f38565b60405180910390fd5b60006106a761062f565b73ffffffffffffffffffffffffffffffffffffffff16346040516106ca90610f89565b60006040518083038185875af1925050503d8060008114610707576040519150601f19603f3d011682016040523d82523d6000602084013e61070c565b606091505b5050905080610750576040517f08c379a000000000000000000000000000000000000000000000000000000000815260040161074790610fea565b60405180910390fd5b600082036107f85782600260003373ffffffffffffffffffffffffffffffffffffffff1673ffffffffffffffffffffffffffffffffffffffff16815260200190815260200160002090816107a491906111b6565b503373ffffffffffffffffffffffffffffffffffffffff167fcc1ad402c343c58809d16c5a46d95a1fe7a4dfae5dad2e3d15dbbf4afb6c8abb846040516107eb9190610cbe565b60405180910390a261090f565b82600260003373ffffffffffffffffffffffffffffffffffffffff1673ffffffffffffffffffffffffffffffffffffffff168152602001908152602001600020908161084491906111b6565b508260036000848152602001908152602001600020600001908161086891906111b6565b50336003600084815260200190815260200160002060010160006101000a81548173ffffffffffffffffffffffffffffffffffffffff021916908373ffffffffffffffffffffffffffffffffffffffff1602179055503373ffffffffffffffffffffffffffffffffffffffff167f92105da43b232c654d7cb657b1a6abc36f473f5e82eb1214a6b59f7aa73f213a8484604051610906929190611297565b60405180910390a25b505050565b61091c61099a565b600073ffffffffffffffffffffffffffffffffffffffff168173ffffffffffffffffffffffffffffffffffffffff160361098e5760006040517f1e4fbdf70000000000000000000000000000000000000000000000000000000081526004016109859190610ce0565b60405180910390fd5b61099781610a21565b50565b6109a2610ae5565b73ffffffffffffffffffffffffffffffffffffffff166109c061062f565b73ffffffffffffffffffffffffffffffffffffffff1614610a1f576109e3610ae5565b6040517f118cdaa7000000000000000000000000000000000000000000000000000000008152600401610a169190610ce0565b60405180910390fd5b565b60008060009054906101000a900473ffffffffffffffffffffffffffffffffffffffff169050816000806101000a81548173ffffffffffffffffffffffffffffffffffffffff021916908373ffffffffffffffffffffffffffffffffffffffff1602179055508173ffffffffffffffffffffffffffffffffffffffff168173ffffffffffffffffffffffffffffffffffffffff167f8be0079c531659141344cd1fd0a4f28419497f9722a3daafe3b4186f6b6457e060405160405180910390a35050565b600033905090565b6000604051905090565b600080fd5b600080fd5b6000819050919050565b610b1481610b01565b8114610b1f57600080fd5b50565b600081359050610b3181610b0b565b92915050565b600060208284031215610b4d57610b4c610af7565b5b6000610b5b84828501610b22565b91505092915050565b600081519050919050565b600082825260208201905092915050565b60005b83811015610b9e578082015181840152602081019050610b83565b60008484015250505050565b6000601f19601f8301169050919050565b6000610bc682610b64565b610bd08185610b6f565b9350610be0818560208601610b80565b610be981610baa565b840191505092915050565b600073ffffffffffffffffffffffffffffffffffffffff82169050919050565b6000610c1f82610bf4565b9050919050565b610c2f81610c14565b82525050565b60006040820190508181036000830152610c4f8185610bbb565b9050610c5e6020830184610c26565b9392505050565b610c6e81610c14565b8114610c7957600080fd5b50565b600081359050610c8b81610c65565b92915050565b600060208284031215610ca757610ca6610af7565b5b6000610cb584828501610c7c565b91505092915050565b60006020820190508181036000830152610cd88184610bbb565b905092915050565b6000602082019050610cf56000830184610c26565b92915050565b600080fd5b600080fd5b7f4e487b7100000000000000000000000000000000000000000000000000000000600052604160045260246000fd5b610d3d82610baa565b810181811067ffffffffffffffff82111715610d5c57610d5b610d05565b5b80604052505050565b6000610d6f610aed565b9050610d7b8282610d34565b919050565b600067ffffffffffffffff821115610d9b57610d9a610d05565b5b610da482610baa565b9050602081019050919050565b82818337600083830152505050565b6000610dd3610dce84610d80565b610d65565b905082815260208101848484011115610def57610dee610d00565b5b610dfa848285610db1565b509392505050565b600082601f830112610e1757610e16610cfb565b5b8135610e27848260208601610dc0565b91505092915050565b60008060408385031215610e4757610e46610af7565b5b600083013567ffffffffffffffff811115610e6557610e64610afc565b5b610e7185828601610e02565b9250506020610e8285828601610b22565b9150509250929050565b7f4e487b7100000000000000000000000000000000000000000000000000000000600052602260045260246000fd5b60006002820490506001821680610ed357607f821691505b602082108103610ee657610ee5610e8c565b5b50919050565b7f4665652069732072657175697265640000000000000000000000000000000000600082015250565b6000610f22600f83610b6f565b9150610f2d82610eec565b602082019050919050565b60006020820190508181036000830152610f5181610f15565b9050919050565b600081905092915050565b50565b6000610f73600083610f58565b9150610f7e82610f63565b600082019050919050565b6000610f9482610f66565b9150819050919050565b7f4661696c656420746f2073656e642045544820746f20746865206f776e657200600082015250565b6000610fd4601f83610b6f565b9150610fdf82610f9e565b602082019050919050565b6000602082019050818103600083015261100381610fc7565b9050919050565b60008190508160005260206000209050919050565b60006020601f8301049050919050565b600082821b905092915050565b60006008830261106c7fffffffffffffffffffffffffffffffffffffffffffffffffffffffffffffffff8261102f565b611076868361102f565b95508019841693508086168417925050509392505050565b6000819050919050565b60006110b36110ae6110a984610b01565b61108e565b610b01565b9050919050565b6000819050919050565b6110cd83611098565b6110e16110d9826110ba565b84845461103c565b825550505050565b600090565b6110f66110e9565b6111018184846110c4565b505050565b5b818110156111255761111a6000826110ee565b600181019050611107565b5050565b601f82111561116a5761113b8161100a565b6111448461101f565b81016020851015611153578190505b61116761115f8561101f565b830182611106565b50505b505050565b600082821c905092915050565b600061118d6000198460080261116f565b1980831691505092915050565b60006111a6838361117c565b9150826002028217905092915050565b6111bf82610b64565b67ffffffffffffffff8111156111d8576111d7610d05565b5b6111e28254610ebb565b6111ed828285611129565b600060209050601f831160018114611220576000841561120e578287015190505b611218858261119a565b865550611280565b601f19841661122e8661100a565b60005b8281101561125657848901518255600182019150602085019450602081019050611231565b86831015611273578489015161126f601f89168261117c565b8355505b6001600288020188555050505b505050505050565b61129181610b01565b82525050565b600060408201905081810360008301526112b18185610bbb565b90506112c06020830184611288565b939250505056fea26469706673582212202cd2fb0441e318edee0248d7429409457d357d1e00408767b10c9cdbdf560d9564736f6c634300081b0033",
  "linkReferences": {},
  "deployedLinkReferences": {}
}